:100000000C9435000C945D000C945D000C945D0024
:100010000C945D000C945D000C945D000C945D00EC
:100020000C945D000C945D000C945D000C945D00DC
:100030000C945D000C945D000C945D000C945D00CC
:100040000C94A0040C945D000C946E040C94480471
:100050000C945D000C945D000C945D000C945D00AC
:100060000C945D000C945D00C50A11241FBECFEFF7
:10007000D8E0DEBFCDBF25E0A6EAB4E001C01D9206
:10008000AE3BB207E1F714E0A0E0B1E0EEE5FBE142
:1000900002C005900D92A63AB107D9F710E0C5E36A
:1000A000D0E004C02197FE010E949D0BC433D1070C
:1000B000C9F70E94EA040C94AD0D0C940000089559
:1000C000AF92BF92CF92DF92EF92FF920F931F9366
:1000D000CF93DF936C017B018B01040F151FEB01A4
:1000E0005E01AE18BF08C017D10759F06991D6015B
:1000F000ED91FC910190F081E02DC6010995892BCD
:1001000079F7C501DF91CF911F910F91FF90EF908B
:10011000DF90CF90BF90AF900895FC01538D448D38
:10012000252F30E0842F90E0821B930B541710F0A2
:10013000CF96089501970895FC01918D828D9817AF
:1001400061F0A28DAE0FBF2FB11D5D968C91928D87
:100150009F5F9F73928F90E008958FEF9FEF0895B8
:100160002FB7F8948091190590911A05A0911B055D
:10017000B0911C052FBF8093250590932605A09371
:100180002705B09328058DE195E00E949C0097FF1C
:1001900026C02FB7F8948091190590911A05A09167
:1001A0001B05B0911C052FBF4091250550912605D8
:1001B0006091270570912805841B950BA60BB70B42
:1001C00040912105509122056091230570912405ED
:1001D00084179507A607B707B0F28FEF9FEF089532
:1001E000FC01918D828D981731F0828DE80FF11D01
:1001F000858D90E008958FEF9FEF0895FC01918D1C
:10020000228D892F90E0805C9F4F821B91098F7314
:10021000992708958DE195E00E94FE0021E0892B49
:1002200009F420E0822F089580E090E0892B29F0E6
:100230000E940A0181110C9400000895FC01A48D14
:10024000A80FB92FB11DA35ABF4F2C91848D90E0F8
:1002500001968F739927848FA689B7892C93A089DB
:10026000B1898C91837080648C93938D848D981365
:1002700006C00288F389E02D80818F7D80830895F8
:10028000EF92FF920F931F93CF93DF93EC0181E0E6
:10029000888F9B8D8C8D98131AC0E889F98980818D
:1002A00085FF15C09FB7F894EE89FF896083E889C0
:1002B000F98980818370806480839FBF81E090E0B2
:1002C000DF91CF911F910F91FF90EF900895F62E3F
:1002D0000B8D10E00F5F1F4F0F731127E02E8C8DD9
:1002E0008E110CC00FB607FCFACFE889F98980811E
:1002F00085FFF5CFCE010E941E01F1CFEB8DEC0FF3
:10030000FD2FF11DE35AFF4FF0829FB7F8940B8F3A
:10031000EA89FB8980818062CFCFCF93DF93EC01A4
:10032000888D8823B9F0AA89BB89E889F9898C91DD
:1003300085FD03C0808186FD0DC00FB607FCF7CF99
:100340008C9185FFF2CF808185FFEDCFCE010E9499
:100350001E01E9CFDF91CF9108953FB7F8948091C6
:10036000A7049091A804A091A904B091AA0426B56D
:10037000A89B05C02F3F19F00196A11DB11D3FBFDD
:10038000BA2FA92F982F8827BC01CD01620F711DAC
:10039000811D911D42E0660F771F881F991F4A95A6
:1003A000D1F708958F929F92AF92BF92CF92DF9232
:1003B000EF92FF920E94AD014B015C0188EBC82EC9
:1003C0008BE0D82EE12CF12C0E94AD01681979093F
:1003D0008A099B09683E734081059105A8F321E0D5
:1003E000C21AD108E108F10888EE880E83E0981E51
:1003F000A11CB11CC114D104E104F10429F7FF9040
:10040000EF90DF90CF90BF90AF909F908F90089526
:100410002FB7F8948091190590911A05A0911B05AA
:10042000B0911C052FBF8093CC049093CD04A09372
:10043000CE04B093CF040895FC0101900020E9F7A9
:100440003197AF01481B590BBC018DE195E00C942D
:10045000600087E491E00C941C02CF93DF93FC01D1
:1004600044815581608171818DE195E00E94600039
:10047000EC010E9429028C0F9D1FDF91CF910895FE
:10048000CF93DF930E941C02EC010E9429028C0F83
:100490009D1FDF91CF9108958F929F92AF92BF924F
:1004A000CF92DF92EF92FF920F931F93CF93DF9340
:1004B000CDB7DEB7A1970FB6F894DEBF0FBECDBFA4
:1004C0006B017C01F7FE41C06DE28DE195E00E9479
:1004D00040018C0122273327A9012C193D094E091F
:1004E0005F0919A2CE0181967C019AE0892E912C98
:1004F000A12CB12CCA01B901A50194010E947B0B6A
:10050000605DF70162937F012115310541055105B9
:1005100089F790E080E0309719F0CF010E941C022B
:10052000800F911FA1960FB6F894DEBF0FBECDBF0E
:10053000DF91CF911F910F91FF90EF90DF90CF90BF
:10054000BF90AF909F908F900895AC019B0119A22E
:100550008E010F5D1F4F8AE0C82ED12CE12CF12CAB
:10056000CA01B901A70196010E947B0B605DF801E9
:1005700062938F01211531054105510589F790E0FE
:1005800080E0309779F2CF010E941C02CBCFCF934D
:10059000DF93BC01990F880B990B0E944C02EC0170
:1005A0000E9429028C0F9D1FDF91CF9108950F9318
:1005B0001F93CF93DF938C01EB01FC01808191812C
:1005C0000097E1F06881798161157105A9F0428198
:1005D00053812C813D814217530770F00E94970D83
:1005E0008C819D81F801958384831D821C82DF911B
:1005F000CF911F910F9108950E943F0C888199819E
:10060000F801918380838A819B81938382838C818B
:100610009D8195838483198218821B821A82E5CF7B
:10062000FC0180819181009711F00C943F0C08959A
:10063000FC0124813581232B39F421E0FB018081E9
:10064000882349F020E007C0808191810E948E0DAF
:1006500021E0892BB9F7822F0895FF920F931F9302
:10066000CF93DF93EC01F62E08811981C8010E9417
:100670002E0BF81621F06F2DC8010E94360BCE010B
:10068000DF91CF911F910F91FF900895CF92DF924C
:10069000EF92FF920F931F93CF93DF9300D0CDB7CC
:1006A000DEB76C017C0103EE13E01A830983F701C6
:1006B00061917F01CE0101960E942D030F5F1F4FB4
:1006C0000A3EF3E01F0789F7C6010F900F90DF91F4
:1006D000CF911F910F91FF90EF90DF90CF900895F1
:1006E000CF92DF92EF92FF920F931F93CF93DF93FE
:1006F000EB017B012DE2E20EF11C8B016C01C61AAD
:10070000D70AC601800F911F0E942E0BF80181931A
:100710008F01EE15FF05A9F7CE01DF91CF911F9153
:100720000F91FF90EF90DF90CF90089580EE93E0CF
:100730000E942E0B90E008950F931F93CF93DF93A9
:10074000EC0188819981009759F02A813B81261715
:10075000370730F081E0DF91CF911F910F9108951D
:100760008B016F5F7F4F0E94C80C009759F09983EF
:1007700088831B830A832C813D81232B59F7FC013D
:100780001082E8CF80E0E7CFCF93DF93EC011982AE
:1007900018821B821A821D821C8270E060E00E9417
:1007A0009C032881398181110FC02115310519F071
:1007B000C9010E943F0C198218821D821C821B8273
:1007C0001A82DF91CF9108951D821C8269E471E045
:1007D000C901DF91CF910C94970DEF92FF920F9387
:1007E0001F93CF93DF9300D0CDB7DEB78C010E946B
:1007F000C4030E94B00097FD1EC089831A82F801CD
:10080000E480F580FFEFEF1AFF0AB701C8010E94EC
:100810009C03882371F3F8012081318184819581C3
:10082000BE016F5F7F4F820F931F0E94970DF801EB
:10083000F582E482DECFC8010F900F90DF91CF9157
:100840001F910F91FF90EF900895CF93DF93EC01EC
:1008500070E060E00E949C032881398181110FC003
:100860002115310519F0C9010E943F0C1982188227
:100870001D821C821B821A82DF91CF9108951D82F6
:100880001C8269E471E0C901DF91CF910C94970D4E
:100890001F920F920FB60F9211242F933F934F93F5
:1008A0005F936F937F938F939F93AF93BF93EF93D8
:1008B000FF938DE195E00E941E01FF91EF91BF91A2
:1008C000AF919F918F917F916F915F914F913F91E8
:1008D0002F910F900FBE0F901F9018951F920F929F
:1008E0000FB60F9211242F938F939F93EF93FF9343
:1008F000E0912D05F0912E058081E0913305F09176
:10090000340582FD1BC09081809136058F5F8F7307
:1009100020913705821741F0E0913605F0E0E35E63
:10092000FA4F958F80933605FF91EF919F918F91AC
:100930002F910F900FBE0F901F9018958081F4CFCC
:100940001F920F920FB60F9211242F933F938F9304
:100950009F93AF93BF938091190590911A05A09131
:100960001B05B0911C053091A60423E0230F2D3701
:1009700058F50196A11DB11D2093A6048093190579
:1009800090931A05A0931B05B0931C058091A704B2
:100990009091A804A091A904B091AA040196A11D68
:1009A000B11D8093A7049093A804A093A904B093C9
:1009B000AA04BF91AF919F918F913F912F910F907A
:1009C0000FBE0F901F90189526E8230F0296A11DC9
:1009D000B11DD2CFCF93DF93CDB7DEB7E3970FB67C
:1009E000F894DEBF0FBECDBF789484B5826084BD1D
:1009F00084B5816084BD85B5826085BD85B5816023
:100A000085BD80916E00816080936E0010928100A0
:100A1000809181008260809381008091810081605B
:100A2000809381008091800081608093800080911C
:100A3000B10084608093B1008091B00081608093A8
:100A4000B00080917A00846080937A0080917A006F
:100A5000826080937A0080917A00816080937A002E
:100A600080917A00806880937A001092C100E091B2
:100A70002D05F0912E0582E08083E0912905F0910B
:100A80002A051082E0912B05F0912C058FEC8083D4
:100A900010923505E0913105F091320586E08083B2
:100AA000E0912F05F0913005808180618083E09195
:100AB0002F05F0913005808188608083E0912F05BB
:100AC000F0913005808180688083E0912F05F0915E
:100AD000300580818F7D80830E9496038F3F910532
:100AE00029F460E080EE93E00E94360B81EE93E003
:100AF0000E942E0B833049F082EE93E00E942E0B71
:100B0000833019F081E080931805809118058111D8
:100B10008FC082EE93E00E942E0B833009F07BC0E1
:100B20008AE491E00E9440027E012EE2E20EF11C76
:100B30008E010F5F1F4F332433943DE2232E8091AB
:100B40001805882309F486C08DE195E00E94FE0017
:100B50001816190684F50E940802C8010E94ED03C8
:100B60008D819E81069709F06CC069817A8146E08B
:100B700050E081E195E00E949E0D1092170581E101
:100B800095E00E94460363E081EE93E00E94360BFD
:100B90008FEB91E00E94400284E791E00E944002C6
:100BA0000E94D2018CE791E00E9440021092180549
:100BB000C8010E9410032FB7F894809119059091F5
:100BC0001A05A0911B05B0911C052FBF4091CC04C4
:100BD0005091CD046091CE047091CF04841B950B8D
:100BE000A60BB70B81369A4EA105B10538F082EA03
:100BF00094E00E944002F0E0E0E0099580E090E09F
:100C0000892B09F49CCF0E940A01882309F493CF11
:100C10000E94000090CF86E691E00E94400284E7A7
:100C200091E00E9440020E94D2018CE791E07ACFCD
:100C300084E991E00E9440020E94D20188EA91E09A
:100C400071CF84ED91E00E94400288EA91E00E9419
:100C50004002AECF80911005811172C08DE195E008
:100C60000E94FE0018161906C4F580910F05811127
:100C700034C00E940802C8010E94ED0398E0A92E2A
:100C800095E0B92E23EE822E23E0922EC4010E941D
:100C90002E0BF50181935F01FFEF8F1A9F0A2AEE59
:100CA000821623E0920691F768E075E089819A81C7
:100CB0000E948E0D892B09F047C282EE93E00E94BC
:100CC0002E0B833009F037C288EA91E00E9440027F
:100CD00030920F05C8010E9410038DE195E00E943B
:100CE000FE00181619063CF580910F05882319F1AE
:100CF0000E940802C8010E94ED038D819E81069723
:100D000009F076C269817A8146E050E080E095E0A2
:100D10000E949E0D1092060580E095E00E94460319
:100D200060E082EE93E00E94360BF0E0E0E009958F
:100D3000C8010E94100380911005882309F461C046
:100D40008091FF04811166C08091FE0481115DC015
:100D50008091FD04811159C08091FC04811155C01E
:100D60008091FB04811151C00E9496035C01809127
:100D700007058823C9F00E94290286E392E00E94B9
:100D80001C02B5016F5F7F4F072E000C880B990B7B
:100D90000E944C0284E492E00E94400287E592E0C7
:100DA0000E944002109207058DE195E00E94FE002E
:100DB0001816190634F50E940802C7010E94ED03B7
:100DC0008AA99BA9019709F0CFC263EA72E0C70123
:100DD0000E941803882309F419C2F6E1AF16B10482
:100DE0000CF00FC287E692E00E94400282E792E098
:100DF0000E9440023092FF043092FA04C7010E9420
:100E000010038091FF04811105C08091FC048823A8
:100E100009F440C18091F204811106C08CEE94E087
:100E20000E94C4033092F2048091E404811106C050
:100E30008EED94E00E94C4033092E4048091D604C5
:100E4000811106C080ED94E00E94C4033092D60464
:100E50008091FA04882369F18DE195E00E94FE00FB
:100E60001816190634F50E940802C8010E94ED0305
:100E7000B8018CEE94E00E94D702C8010E941003D2
:100E80008091F0049091F1040F9708F470C288E605
:100E900093E00E94400285E893E00E9440028CEEBD
:100EA00094E00E9425041092FF041092FC043092FA
:100EB00007058091CB04882369F18DE195E00E94BC
:100EC000FE001816190634F50E940802C8010E9497
:100ED000ED03B8018EED94E00E94D702C8010E9494
:100EE00010038091E2049091E3040F9708F44CC240
:100EF00087EA93E00E94400285E893E00E94400266
:100F00008EED94E00E9425041092FF041092FC04E0
:100F1000309207058091CA048823A1F18DE195E004
:100F20000E94FE00181619060CF0B4C00E940802B8
:100F3000C8010E94ED03B80180ED94E00E94D70241
:100F4000C8010E9410038091D4049091D504B12C63
:100F5000A12C0F9708F425C280ED93E00E94400277
:100F600085E893E00E94400280ED94E00E94250411
:100F70001092FF041092FC04309207058091CA047D
:100F8000811188C08091CB04811184C08091FA04C2
:100F9000811180C08091FC04882309F416C2C0909E
:100FA000C804D090C90421E0C21AD1088CEE93E0A5
:100FB0000E941C026091C8047091C904072E000CA5
:100FC000880B990B0E944C0287EF93E00E9440022D
:100FD0001092FC041092C7045090C7048DE2E8E020
:100FE000F1E0D80101900D928A95E1F76091EC044F
:100FF0007091ED044FE050E0C8010E949E0D609199
:10100000DE047091DF044FE050E0CE0140960E9474
:101010009E0D6091D0047091D1044FE050E0CE015C
:101020004F960E949E0D2C9C50012D9CB00C1124BB
:1010300048013501601A710AC301880D991D9FA7E7
:101040008EA7F40161914F01C7010E942D038E14F8
:101050009F0491F70E9429028EEF93E00E941C02E8
:10106000C5010E94C702552099F0B6016F5F7F4FFE
:101070006631710534F088E194E00E94400266E137
:1010800070E080EE93E09FA78EA7C7010E942D031A
:10109000309207058091FD04882309F4C8C180912E
:1010A000BF04811106C089EB94E00E94C403309212
:1010B000BF048DE195E00E94FE00181619060CF0A1
:1010C000B6C10E940802C8010E94ED03B80189EB75
:1010D00094E00E94D702C8010E9410030E94960368
:1010E0003C01B12CA12C912C812C8614970404F581
:1010F0008DE2E8E0F1E0D80101900D928A95E1F7E8
:101100005A2C4B2CB801C5010E947003B801809184
:10111000B9049091BA040E948E0DEDE2AE0EB11C9E
:10112000892B09F05FC1FEE18F16910409F05EC1C1
:1011300088E494E076C18DEE91E00E944002309206
:10114000100530920705C6CD8091000190910101F4
:1011500001979093010180930001892B41F585EF60
:1011600091E00E9440028DE195E00E948D01E091A6
:101170002F05F091300580818F7E8083E0912F05CF
:10118000F09130058081877F8083E0912F05F09179
:10119000300580818F778083E0912F05F0913005B5
:1011A00080818F7D808380913705809336058EE026
:1011B00092E00E941C026091000170910101072ED3
:1011C000000C880B990B0E944C0289E192E00E946E
:1011D00040028091000190910101019721F489E280
:1011E00092E00E9440028CE791E00E94400272CDA2
:1011F00084ED91E00E94400288EA91E00E94400262
:1012000097CD84E892E00E9440028DC06AE972E0C6
:10121000C7010E941803882359F08CE992E00E94CC
:10122000400285EA92E00E9440023092FE04E6CD40
:1012300069EB72E0C7010E941803882359F08BEB19
:1012400092E00E94400282E792E00E9440023092C7
:10125000FD04D4CD65EC72E0C7010E941803882319
:10126000B9F087EC92E00E944002B12CA12C60E022
:10127000C5010E94360B2FEFA21AB20A81EEA81602
:1012800083E0B806A1F70E9429028DED92E0BBCF62
:101290006DEE72E0C7010E941803882341F08FEEC3
:1012A00092E00E944002F0E0E0E00995A7CD63EFF4
:1012B00071E0C7010E9418038823C1F182EF92E018
:1012C0000E94400283E193E00E944002412C512C95
:1012D00032014394912C812CC20101978A159B0500
:1012E00004F58DE2E8E0F1E0D80101900D928A95D5
:1012F000E1F7B801C4010E947003C301B2010E946A
:101300004C0287E293E00E941C02C8010E94400246
:10131000FDE28F0E911C2FEF421A520A620A720AE6
:10132000DBCF0E9429023092070568CD62E373E0AB
:10133000C7010E941803882331F063E082EE93E036
:101340000E94360BB0CF65E672E0C7010E94180319
:10135000882339F085EA92E00E9440023092FB0433
:101360004DCD84E393E04FCF8FE493E04CCF1092C8
:10137000FA043092CB048CEE94E00E942D0287E9AF
:1013800093E00E94400295CD1092CB043092CA04A3
:101390008EED94E00E942D0281EC93E00E944002C9
:1013A000B9CD8091D4049091D504A816B90640F423
:1013B0008AEE93E00E941C02FFEFAF1ABF0AF1CF42
:1013C0000E9429021092CA04D9CD8091FF0488237B
:1013D00009F402CE0E9496036C011092FF04309231
:1013E000C704FACD2FEF821A920A7FCE8DE2E8E091
:1013F000F1E0D80101900D928A95E1F7B801852DB1
:10140000942D0E94700384E394E00E941C02CE019C
:1014100040960E9440028EE394E00E941C02CE019E
:101420004F960E9440021092FD0430920705809171
:10143000FE04882309F447C08091B104811106C0DD
:101440008BEA94E00E94C4033092B1048DE195E0F0
:101450000E94FE0018161906B4F50E940802C80181
:101460000E94ED03B8018BEA94E00E94D702C80104
:101470000E9410038091AB049091AC04009709F492
:1014800068C00E94F20A7093C9046093C8048CE596
:1014900094E00E9440028091C8049091C9040E9487
:1014A000C7028091C8049091C9040197469708F03B
:1014B00054C03092FC043092FA041092FE048DE67F
:1014C00094E00E9440028091FB04882309F473CBCE
:1014D000C7010E94C4038DE195E00E94FE0018162A
:1014E00019060CF04DC00E940802C8010E94ED03CD
:1014F000B801C7010E94D702C8010E9410038EA53F
:101500009FA5812C912C5401009719F00E94F20A9A
:101510004B018CE594E00E944002C4010E94C70286
:10152000C40101978631910568F5289E4001299EE6
:10153000900C112454018DE2A80EB11CA814B9041A
:10154000B9F060E0C4010E94360B9FEF891A990A36
:10155000F5CF60E070E0CB0196CF83E894E00E9485
:1015600040021092FC041092FE0430920705ABCFAB
:1015700084E994E00E9440021092FB043092070537
:10158000C70117CB83E894E0F5CFEDE1F5E01382D6
:10159000128288EE93E0A0E0B0E084839583A68376
:1015A000B78389E391E09183808385EC90E0958710
:1015B000848784EC90E09787868780EC90E0918B1D
:1015C000808B81EC90E0938B828B82EC90E0958B0A
:1015D000848B86EC90E0978B868B118E128E138E07
:1015E000148E08951F93FC0199278827BC01E89465
:1015F00011911032E9F3193010F01E30C8F31B328C
:1016000051F01D3249F4689406C00E94190B610F15
:10161000711D811D911D119110531A30B0F33EF4CC
:1016200090958095709561957F4F8F4F9F4F1F913B
:101630000895592F482F372F262F660F771F881FA1
:10164000991F660F771F881F991F620F731F841FD2
:10165000951F660F771F881F991F0895F999FECF70
:1016600092BD81BDF89A992780B50895262FF999E2
:10167000FECF1FBA92BD81BD20BD0FB6F894FA9A75
:10168000F99A0FBE019608952F923F924F925F9262
:101690006F927F928F929F92AF92BF92CF92DF9282
:1016A000EF92FF920F931F93CF93DF93CDB7DEB7E7
:1016B000CA1BDB0B0FB6F894DEBF0FBECDBF09947B
:1016C0002A88398848885F846E847D848C849B84D2
:1016D000AA84B984C884DF80EE80FD800C811B81E0
:1016E000AA81B981CE0FD11D0FB6F894DEBF0FBE0F
:1016F000CDBFED010895A1E21A2EAA1BBB1BFD016F
:101700000DC0AA1FBB1FEE1FFF1FA217B307E407E0
:10171000F50720F0A21BB30BE40BF50B661F771F38
:10172000881F991F1A9469F7609570958095909518
:101730009B01AC01BD01CF010895EE0FFF1F059085
:10174000F491E02D09940F931F93CF93DF93823090
:10175000910510F482E090E0E091BC05F091BD05A8
:1017600030E020E0B0E0A0E0309799F42115310599
:1017700009F44AC0281B390B24303105D8F58A8179
:101780009B816115710589F1FB0193838283FE01C1
:1017900011C0408151810281138148175907E0F03F
:1017A0004817590799F4109761F012960C93129705
:1017B00013961C933296CF01DF91CF911F910F9119
:1017C00008950093BC051093BD05F4CF2115310594
:1017D00051F04217530738F0A901DB019A01BD010E
:1017E000DF01F801C1CFEF01F9CF9093BD058093E0
:1017F000BC05CDCFFE01E20FF31F819391932250E0
:10180000310939832883D7CF2091BA053091BB05A0
:10181000232B41F420910401309105013093BB0545
:101820002093BA0520910201309103012115310561
:1018300041F42DB73EB74091060150910701241B9A
:10184000350BE091BA05F091BB05E217F307A0F460
:101850002E1B3F0B2817390778F0AC014E5F5F4F06
:101860002417350748F04E0F5F1F5093BB05409378
:10187000BA05819391939FCFF0E0E0E09CCFCF93A6
:10188000DF930097E9F0FC01329713821282A09156
:10189000BC05B091BD05ED0130E020E01097A1F44A
:1018A00020813181820F931F2091BA053091BB05B1
:1018B0002817390709F061C0F093BB05E093BA051A
:1018C000DF91CF910895EA01CE17DF07E8F54A814D
:1018D0005B819E0141155105B1F7E901FB83EA8364
:1018E00049915991C40FD51FEC17FD0761F4808110
:1018F00091810296840F951FE901998388838281E3
:1019000093819B838A83F0E0E0E012968D919C9115
:1019100013970097B9F52D913C911197CD0102963F
:10192000820F931F2091BA053091BB052817390704
:1019300039F6309751F51092BD051092BC05B09361
:10194000BB05A093BA05BCCFD383C283408151812C
:10195000840F951FC817D90761F44E5F5F4F8881C8
:101960009981480F591F518340838A819B819383BA
:1019700082832115310509F0B0CFF093BD05E093C6
:10198000BC059ECFFD01DC01C0CF13821282D7CFF0
:10199000B0E0A0E0EEECFCE00C94460B8C0100976C
:1019A00051F4CB010E94A30B8C01C801CDB7DEB767
:1019B000E0E10C94620BFC01E60FF71F9C01225042
:1019C0003109E217F30708F49DC0D901CD91DC91EC
:1019D0001197C617D70798F0C530D10530F3CE015F
:1019E00004978617970708F3C61BD70B2297C19356
:1019F000D1936D937C93CF010E943F0CD6CF5B01B6
:101A0000AC1ABD0A4C018C0E9D1EA091BC05B09174
:101A1000BD05512C412CF12CE12C109731F5809112
:101A2000BA059091BB058815990509F05CC046166A
:101A3000570608F058C08091020190910301009769
:101A400041F48DB79EB74091060150910701841B68
:101A5000950BE817F90708F055C0F093BB05E09324
:101A6000BA05F90171836083A0CF8D919C91119784
:101A700012966C90129713967C901397A815B9053F
:101A800059F56C0142E0C40ED11CCA14DB0420F1EC
:101A9000AC014A195B09DA011296159780F062824F
:101AA000738251834083D9016D937C93E114F104D7
:101AB00071F0D7011396FC93EE93129776CF22968E
:101AC0008C0F9D1FF90191838083F301EFCFF09379
:101AD000BD05E093BC0569CF4816590608F42C01F2
:101AE0007D01D3019ACFCB010E94A30B7C0100970B
:101AF00049F0AE01B8010E94850DC8010E943F0C5B
:101B0000870153CF10E000E050CFFB01DC0102C0A1
:101B100001900D9241505040D8F70895FB01DC012F
:101B20008D91019080190110D9F3990B0895FB0153
:101B3000DC0101900D920020E1F70895FB01DC012A
:101B40004150504048F001900D920020C9F701C06B
:0E1B50001D9241505040E0F70895F894FFCFE9
:101B5E0003000000BE058000000000000000000031
:101B6E000000000000000000000000000000000067
:101B7E000000000000000000000000000000000057
:101B8E00000000000000000000400160008D008D8C
:101B9E0001FE009C00F0000D0A00456E7465722077
:101BAE00796F7572206F6C64203620646967697472
:101BBE002050494E3A005661756C742065786973F1
:101BCE0074732E00776169742E2E2E00456E746527
:101BDE007220796F7572203620646967697420509F
:101BEE00494E3A004372656174696E67206E65777F
:101BFE00207661756C742E00456E746572206E656C
:101C0E007720362064696769742050494E3A005037
:101C1E00494E2073746F72656420696E204545507D
:101C2E00524F4D00456E746572206F6E6C79207345
:101C3E0069782064696769742070696E004D6174FB
:101C4E006368656400436F6D6D756E696361746979
:101C5E006F6E207465726D696E6174656400577283
:101C6E006F6E672050494E200020617474656D7050
:101C7E007473206C6566742E006C617374206174CD
:101C8E0074656D7074005468697320697320796F80
:101C9E007572200020656E7472792C206D6178202B
:101CAE0069732032322E00652C612C6B2C772C72CE
:101CBE002C642C702C6300456E747279206D6F64E9
:101CCE006500456E74657220646F6D61696E206E7D
:101CDE00616D6500456E7472696573206E6F742058
:101CEE0061636365707465642E00610061646420D5
:101CFE006D6F646500456E74657220656E747279E1
:101D0E00206E756D6265722E006B006B6E6F7720A4
:101D1E006D6F646500770045726173696E6720614F
:101D2E006C6C206C6F636174696F6E7300416C6CC8
:101D3E0020646174612077697065642E00720052B0
:101D4E0045005072696E74696E6720616C6C207309
:101D5E00746F72656420646F6D61696E206E616D63
:101D6E00657300456E747279206E6F2E20202044AC
:101D7E006F6D61696E73002E2020202020202020A0
:101D8E0020007000496E76616C69642C20656E745B
:101D9E0065722076616C696420636861722E0045FD
:101DAE006E7465722073696E676C652076616C69FE
:101DBE006420636861722E00446F6D61696E206EDF
:101DCE00616D652067726561746572207468616EFD
:101DDE002031342E00456E747279206E6F7420732C
:101DEE00746F7265642E00456E746572207573652E
:101DFE00726E616D652000557365726E616D652042
:101E0E0067726561746572207468616E2031342E5C
:101E1E0000456E7465722070617373776F72640023
:101E2E0050617373776F7264206772656174657247
:101E3E00207468616E2031342E002A00416464697A
:101E4E006E67206F6E200020656E7472790063726B
:101E5E00656473207361766564206174206C6F63B2
:101E6E006174696F6E3A20004D656D6F72792066F0
:101E7E00756C6C206F6E206D6F726520656E74725E
:101E8E0069657300557365726E616D653A005061D8
:101E9E007373776F72643A00496E76616C69642071
:101EAE00646F6D61696E206E616D6500596F75208E
:101EBE006861766520656E746572656400456E7442
:101ECE006572206E657720646F6D61696E206E613C
:101EDE006D6500496E76616C6964206C6F63617428
:101EEE00696F6E00456E74727920636C6561726500
:061EFE006400544F0000D7
:00000001FF
