:100000000C9435000C945D000C945D000C945D0024
:100010000C945D000C945D000C945D000C945D00EC
:100020000C945D000C945D000C945D000C945D00DC
:100030000C945D000C945D000C945D000C945D00CC
:100040000C9466040C945D000C9434040C940E041F
:100050000C945D000C945D000C945D000C945D00AC
:100060000C945D000C945D00130A11241FBECFEFA9
:10007000D8E0DEBFCDBF25E0A6EDB4E001C01D9203
:10008000A53EB207E1F714E0A0E0B1E0EAEFF9E144
:1000900002C005900D92A63DB107D9F710E0C5E367
:1000A000D0E004C02197FE010E94EB0AC433D107BF
:1000B000C9F70E94B0040C94FB0C0C940000089546
:1000C000AF92BF92CF92DF92EF92FF920F931F9366
:1000D000CF93DF936C017B018B01040F151FEB01A4
:1000E0005E01AE18BF08C017D10759F06991D6015B
:1000F000ED91FC910190F081E02DC6010995892BCD
:1001000079F7C501DF91CF911F910F91FF90EF908B
:10011000DF90CF90BF90AF900895FC01538D448D38
:10012000252F30E0842F90E0821B930B541710F0A2
:10013000CF96089501970895FC01918D828D9817AF
:1001400061F0A28DAE0FBF2FB11D5D968C91928D87
:100150009F5F9F73928F90E008958FEF9FEF0895B8
:100160002FB7F8948091400590914105A0914205E8
:10017000B09143052FBF80934C0590934D05A093FC
:100180004E05B0934F0584E495E00E949C0097FFD4
:1001900026C02FB7F8948091400590914105A09119
:1001A0004205B09143052FBF40914C0550914D053C
:1001B00060914E0570914F05841B950BA60BB70BF4
:1001C000409148055091490560914A0570914B0551
:1001D00084179507A607B707B0F28FEF9FEF089532
:1001E000FC01918D828D981731F0828DE80FF11D01
:1001F000858D90E008958FEF9FEF0895FC01918D1C
:10020000228D892F90E0805C9F4F821B91098F7314
:100210009927089584E495E00E94FE0021E0892B4F
:1002200009F420E0822F089580E090E0892B29F0E6
:100230000E940A0181110C9400000895FC01A48D14
:10024000A80FB92FB11DA35ABF4F2C91848D90E0F8
:1002500001968F739927848FA689B7892C93A089DB
:10026000B1898C91837080648C93938D848D981365
:1002700006C00288F389E02D80818F7D80830895F8
:10028000EF92FF920F931F93CF93DF93EC0181E0E6
:10029000888F9B8D8C8D98131AC0E889F98980818D
:1002A00085FF15C09FB7F894EE89FF896083E889C0
:1002B000F98980818370806480839FBF81E090E0B2
:1002C000DF91CF911F910F91FF90EF900895F62E3F
:1002D0000B8D10E00F5F1F4F0F731127E02E8C8DD9
:1002E0008E110CC00FB607FCFACFE889F98980811E
:1002F00085FFF5CFCE010E941E01F1CFEB8DEC0FF3
:10030000FD2FF11DE35AFF4FF0829FB7F8940B8F3A
:10031000EA89FB8980818062CFCFCF93DF93EC01A4
:10032000888D8823B9F0AA89BB89E889F9898C91DD
:1003300085FD03C0808186FD0DC00FB607FCF7CF99
:100340008C9185FFF2CF808185FFEDCFCE010E9499
:100350001E01E9CFDF91CF9108953FB7F8948091C6
:10036000D7049091D804A091D904B091DA0426B5AD
:10037000A89B05C02F3F19F00196A11DB11D3FBFDD
:10038000BA2FA92F982F8827BC01CD01620F711DAC
:10039000811D911D42E0660F771F881F991F4A95A6
:1003A000D1F708958F929F92AF92BF92CF92DF9232
:1003B000EF92FF920E94AD014B015C0188EBC82EC9
:1003C0008BE0D82EE12CF12C0E94AD01681979093F
:1003D0008A099B09683E734081059105A8F321E0D5
:1003E000C21AD108E108F10888EE880E83E0981E51
:1003F000A11CB11CC114D104E104F10429F7FF9040
:10040000EF90DF90CF90BF90AF909F908F90089526
:100410002FB7F8948091400590914105A091420535
:10042000B09143052FBF8093FC049093FD04A093EB
:10043000FE04B093FF040895FC0101900020E9F749
:100440003197AF01481B590BBC0184E495E00C9433
:10045000600087E491E00C941C02CF93DF93FC01D1
:10046000448155816081718184E495E00E9460003F
:10047000EC010E9429028C0F9D1FDF91CF910895FE
:10048000CF93DF930E941C02EC010E9429028C0F83
:100490009D1FDF91CF9108958F929F92AF92BF924F
:1004A000CF92DF92EF92FF920F931F93CF93DF9340
:1004B000CDB7DEB7A1970FB6F894DEBF0FBECDBFA4
:1004C0006B017C01F7FE41C06DE284E495E00E947F
:1004D00040018C0122273327A9012C193D094E091F
:1004E0005F0919A2CE0181967C019AE0892E912C98
:1004F000A12CB12CCA01B901A50194010E94C90A1D
:10050000605DF70162937F012115310541055105B9
:1005100089F790E080E0309719F0CF010E941C022B
:10052000800F911FA1960FB6F894DEBF0FBECDBF0E
:10053000DF91CF911F910F91FF90EF90DF90CF90BF
:10054000BF90AF909F908F900895AC019B0119A22E
:100550008E010F5D1F4F8AE0C82ED12CE12CF12CAB
:10056000CA01B901A70196010E94C90A605DF8019C
:1005700062938F01211531054105510589F790E0FE
:1005800080E0309779F2CF010E941C02CBCF0F930D
:100590001F93CF93DF938C01EB01FC01808191814C
:1005A0000097E1F06881798161157105A9F04281B8
:1005B00053812C813D814217530770F00E94E50C56
:1005C0008C819D81F801958384831D821C82DF913B
:1005D000CF911F910F9108950E948D0B8881998171
:1005E000F801918380838A819B81938382838C81AC
:1005F0009D8195838483198218821B821A82E5CF9C
:10060000FC0180819181009711F00C948D0B08956D
:10061000FC0124813581232B39F421E0FB01808109
:10062000882349F020E007C0808191810E94DC0C82
:1006300021E0892BB9F7822F0895FF920F931F9322
:10064000CF93DF93EC01F62E08811981C8010E9437
:100650007C0AF81621F06F2DC8010E94840ACE0191
:10066000DF91CF911F910F91FF900895CF92DF926C
:10067000EF92FF920F931F93CF93DF93EB017B01D8
:100680002DE2E20EF11C8B016C01C61AD70AC601DD
:10069000800F911F0E947C0AF80181938F01EE1553
:1006A000FF05A9F7CE01DF91CF911F910F91FF9028
:1006B000EF90DF90CF9008958FED93E00E947C0A39
:1006C00090E008950F931F93CF93DF93EC018881FF
:1006D0009981009759F02A813B812617370730F01E
:1006E00081E0DF91CF911F910F9108958B016F5F92
:1006F0007F4F0E94160C009759F0998388831B83C3
:100700000A832C813D81232B59F7FC011082E8CF0D
:1007100080E0E7CFCF93DF93EC01198218821B8230
:100720001A821D821C8270E060E00E9462032881B0
:10073000398181110FC02115310519F0C9010E94BD
:100740008D0B198218821D821C821B821A82DF91F6
:10075000CF9108951D821C8269E471E0C901DF9187
:10076000CF910C94E50CEF92FF920F931F93CF93D0
:10077000DF9300D0CDB7DEB78C010E948A030E94C0
:10078000B00097FD1EC089831A82F801E480F580CD
:10079000FFEFEF1AFF0AB701C8010E946203882326
:1007A00071F3F8012081318184819581BE016F5FF1
:1007B0007F4F820F931F0E94E50CF801F582E482BF
:1007C000DECFC8010F900F90DF91CF911F910F9155
:1007D000FF90EF900895CF93DF93EC0170E060E01D
:1007E0000E9462032881398181110FC021153105D2
:1007F00019F0C9010E948D0B198218821D821C827A
:100800001B821A82DF91CF9108951D821C8269E4B8
:1008100071E0C901DF91CF910C94E50C1F920F920A
:100820000FB60F9211242F933F934F935F936F93C3
:100830007F938F939F93AF93BF93EF93FF9384E442
:1008400095E00E941E01FF91EF91BF91AF919F91A2
:100850008F917F916F915F914F913F912F910F9069
:100860000FBE0F901F9018951F920F920FB60F9208
:1008700011242F938F939F93EF93FF93E09154054F
:10088000F09155058081E0915A05F0915B0582FD5C
:100890001BC0908180915D058F5F8F7320915E05F5
:1008A000821741F0E0915D05F0E0EC5BFA4F958F27
:1008B00080935D05FF91EF919F918F912F910F9004
:1008C0000FBE0F901F9018958081F4CF1F920F924A
:1008D0000FB60F9211242F933F938F939F93AF9353
:1008E000BF938091400590914105A0914205B09140
:1008F00043053091D60423E0230F2D3758F5019698
:10090000A11DB11D2093D60480934005909341050D
:10091000A0934205B09343058091D7049091D804E9
:10092000A091D904B091DA040196A11DB11D809364
:10093000D7049093D804A093D904B093DA04BF915C
:10094000AF919F918F913F912F910F900FBE0F907C
:100950001F90189526E8230F0296A11DB11DD2CF36
:10096000CF93DF93CDB7DEB7E3970FB6F894DEBF32
:100970000FBECDBF789484B5826084BD84B581609C
:1009800084BD85B5826085BD85B5816085BD80915A
:100990006E00816080936E001092810080918100D2
:1009A00082608093810080918100816080938100CA
:1009B000809180008160809380008091B10084608C
:1009C0008093B1008091B00081608093B0008091ED
:1009D0007A00846080937A0080917A0082608093AC
:1009E0007A0080917A00816080937A0080917A0009
:1009F000806880937A001092C100E0915405F091D4
:100A0000550582E08083E0915005F09151051082F8
:100A1000E0915205F09153058FEC808310925C05B4
:100A2000E0915805F091590586E08083E0915605E4
:100A3000F0915705808180618083E0915605F091A7
:100A40005705808188608083E0915605F0915705B5
:100A5000808180688083E0915605F0915705808100
:100A60008F7D80830E945C038F3F910529F460E0B5
:100A70008FED93E00E94840A80EE93E00E947C0A4E
:100A8000833019F081E080933F0580913F0581110B
:100A90009AC08AE491E00E94400288E591E00E94B9
:100AA00040020E94D20180E691E00E9440028E0145
:100AB0000F5F1F4F7E012EE2E20EF11C33243394B0
:100AC0005DE2252E80913F05882309F48EC084E4E1
:100AD00095E00E94FE00181619060CF044C00E9412
:100AE0000802C8010E94B3038D819E81069709F018
:100AF00073C069817A8146E050E088E395E00E9406
:100B0000EC0C10923E0538E3A32E35E0B32E41EEF7
:100B1000842E43E0942E9FA68EA6F50161915F017D
:100B2000C7010E941D03FFEF8F1A9F0A28EE82164D
:100B300023E0920681F763E080EE93E00E94840A4E
:100B400083EA91E00E94400288E591E00E94400221
:100B50000E94D20180E691E00E94400210923F057F
:100B6000C8010E9400032FB7F8948091400590912E
:100B70004105A0914205B09143052FBF4091FC046F
:100B80005091FD046091FE047091FF04841B950B4D
:100B9000A60BB70B81369A4EA105B10538F083ED4F
:100BA00094E00E944002F0E0E0E0099580E090E0EF
:100BB000892B09F487CF0E940A01882309F47ECF8C
:100BC0000E9400007BCF88E791E00E9440020E94D3
:100BD000D2018CE891E069CF88EB91E00E9440025D
:100BE0008CE891E00E944002BBCF809137058111D3
:100BF0003CC084E495E00E94FE00181619060CF033
:100C000091C00E940802C8010E94B30390E3A92E7C
:100C100095E0B92E21EE822E23E0922EC4010E948F
:100C20007C0AF50181935F01FFEF8F1A9F0A28EE7E
:100C3000821623E0920691F760E375E089819A813C
:100C40000E94DC0C892B09F00CC281ED91E00E941E
:100C500040023092370530922F05C8010E940003F0
:100C600080913705882309F45DC080912E0581119C
:100C700062C080912D05811159C080912C05811190
:100C800055C080912B05811151C00E945C035C010D
:100C900080912F058823C9F00E9429028BE392E0FE
:100CA0000E941C02B5016F5F7F4F072E000C880B5E
:100CB000990B0E944C0289E492E00E9440028CE56C
:100CC00092E00E94400210922F0584E495E00E9479
:100CD000FE001816190634F50E940802C7010E948A
:100CE000B3038AA99BA9019709F0C0C264EE72E020
:100CF000C7010E940803882309F423C2F6E1AF1656
:100D0000B1040CF019C285EA92E00E94400280EB27
:100D100092E00E94400230922E0530922A05C701CF
:100D20000E94000380912E05811105C080912B0542
:100D3000882309F445C180912205811106C08CE108
:100D400095E00E948A03309222058091140581115A
:100D500006C08EE095E00E948A03309214058091CF
:100D60000605811106C080E095E00E948A0330925A
:100D7000060580912A05882369F184E495E00E94A4
:100D8000FE001816190634F50E940802C8010E94D8
:100D9000B303B8018CE195E00E94C702C8010E942C
:100DA00000038091200590912105409708F461C2CD
:100DB00087E993E00E94400284EB93E00E944002A6
:100DC0008CE195E00E94EB0310922E0510922B050A
:100DD00030922F058091FB04882369F184E495E02B
:100DE0000E94FE001816190634F50E940802C80178
:100DF0000E94B303B8018EE095E00E94C702C801CB
:100E00000E9400038091120590911305409708F409
:100E10003DC286ED93E00E94400284EB93E00E9485
:100E200040028EE095E00E94EB0310922E05109296
:100E30002B0530922F058091FA048823A1F184E4D8
:100E400095E00E94FE00181619060CF0B9C00E9429
:100E50000802C8010E94B303B80180E095E00E9437
:100E6000C702C8010E940003809104059091050506
:100E7000B12CA12C409708F416C28FEF93E00E948A
:100E8000400284EB93E00E94400280E095E00E94E3
:100E9000EB0310922E0510922B0530922F058091B6
:100EA000FA0481118DC08091FB04811189C0809169
:100EB0002A05811185C080912B05882309F407C27A
:100EC000C090F804D090F90491E0C91AD1088BE1E0
:100ED00094E00E941C026091F8047091F904072EBE
:100EE000000C880B990B0E944C0288E294E00E944F
:100EF000400210922B051092F7045090F7048DE2F7
:100F0000E8E0F1E0D80101900D928A95E1F7609157
:100F10001C0570911D054FE050E0C8010E94EC0CCB
:100F200060910E0570910F054FE050E0CE014096A4
:100F30000E94EC0C60910005709101054FE050E0BB
:100F4000CE014F960E94EC0C2C9C50012D9CB00CB5
:100F5000112448013501601A710AC301880D991DD9
:100F60009FA78EA7F40161914F01C7010E941D0345
:100F70008E149F0491F70E9429028FE294E00E9450
:100F80001C02B501BB0C880B990B0E944C020E94FD
:100F90002902552099F0B6016F5F7F4F66317105C8
:100FA00034F089E494E00E94400266E170E08FED45
:100FB00093E09FA78EA7C7010E941D0330922F05C3
:100FC00080912C05882309F4B4C18091EF0481112C
:100FD00006C089EE94E00E948A033092EF0484E414
:100FE00095E00E94FE00181619060CF0A2C10E949E
:100FF0000802C8010E94B303B80189EE94E00E9480
:10100000C702C8010E9400030E945C033C01B12C8E
:10101000A12C912C812C8614970404F58DE2E8E034
:10102000F1E0D80101900D928A95E1F75A2C4B2CF2
:10103000B801C5010E943603B8018091E90490917E
:10104000EA040E94DC0CEDE2AE0EB11C892B09F023
:101050004BC1FEE18F16910409F04AC189E794E083
:1010600062C189ED91E00E941C02609100017091C3
:101070000101615071097093010160930001072E15
:10108000000C880B990B0E944C0284EE91E00E94A8
:1010900040028091000190910101019721F484EFB9
:1010A00091E00E94400280E691E00E944002A09000
:1010B0000001B0900101A114B10409F0CECD84E487
:1010C00095E00E948D01E0915605F09157058081D1
:1010D0008F7E8083E0915605F09157058081877F50
:1010E0008083E0915605F091570580818F7780834A
:1010F000E0915605F091570580818F7D8083809126
:101100005E0580935D058DE192E00E94400260E003
:10111000C5010E94840A8FEFA81AB80AA11494E0AE
:10112000B906A9F70E9429028CE292E00E944002CF
:10113000F0E0E0E0099591CD82EC92E00E9440025F
:101140008DC068ED72E0C7010E940803882359F042
:101150008AED92E00E94400286EE92E00E944002F8
:1011600030922D05DCCD6AEF72E0C7010E940803C2
:10117000882359F08CEF92E00E94400280EB92E0CD
:101180000E94400230922C05CACD66E073E0C70190
:101190000E9408038823B9F088E093E00E9440028F
:1011A000B12CA12C60E0C5010E94840A2FEFA21A85
:1011B000B20A80EEA81683E0B806A1F70E942902C1
:1011C0008CE292E0BBCF6EE173E0C7010E9408039E
:1011D000882341F080E293E00E944002F0E0E0E0EA
:1011E00009959DCD67ED71E0C7010E940803882332
:1011F000C1F183E293E00E94400284E493E00E9404
:101200004002412C512C32014394912C812CC2017B
:1012100001978A159B0504F58DE2E8E0F1E0D8011D
:1012200001900D928A95E1F7B801C4010E9436033E
:10123000C301B2010E944C0288E593E00E941C02A7
:10124000C8010E944002FDE28F0E911C2FEF421A4E
:10125000520A620A720ADBCF0E94290230922F05DD
:101260005ECD83E693E00E94400259CD8EE793E085
:1012700065CF10922A053092FB048CE195E00E9424
:101280002D0286EC93E00E944002A4CD1092FB0454
:101290003092FA048EE095E00E942D0280EF93E0F8
:1012A0000E944002C8CD8091040590910505A816C2
:1012B000B90640F489E194E00E941C028FEFA81A5D
:1012C000B80AF1CF0E9429021092FA04E8CD809169
:1012D0002E05882309F411CE0E945C036C01109244
:1012E0002E053092F70409CE2FEF821A920A93CE80
:1012F0008DE2E8E0F1E0D80101900D928A95E1F7E6
:10130000B801852D942D0E94360385E694E00E9455
:101310001C02CE0140960E9440028FE694E00E949B
:101320001C02CE014F960E94400210922C05309272
:101330002F0580912D05882309F415CC8091E104B7
:10134000811106C08BED94E00E948A033092E10483
:1013500084E495E00E94FE00181619060CF003CCF8
:101360000E940802C8010E94B303B8018BED94E00B
:101370000E94C702C8010E9400038091DB04909183
:10138000DC04009791F10E94400A7093F904609385
:10139000F8048DE894E00E9440026091F804709196
:1013A000F904072E000C880B990B0E944C020E9436
:1013B00029028091F8049091F904019786319105F2
:1013C00038F5289E4001299E900C112454018DE28D
:1013D000A80EB11CA814B90461F060E0C4010E9419
:1013E000840A9FEF891A990AF5CF60E070E0CB017B
:1013F000CCCF8EE994E00E94400230922B053092CF
:101400002A0510922D058CEA94E00E944002ABCB95
:1014100082EC94E00E94400210922B0510922D0560
:1014200030922F05A0CBE4E4F5E01382128288EE1F
:1014300093E0A0E0B0E084839583A683B78389E33B
:1014400091E09183808385EC90E09587848784EC9C
:1014500090E09787868780EC90E0918B808B81EC81
:1014600090E0938B828B82EC90E0958B848B86EC62
:1014700090E0978B868B118E128E138E148E0895AA
:101480001F93FC0199278827BC01E8941191103221
:10149000E9F3193010F01E30C8F31B3251F01D3241
:1014A00049F4689406C00E94670A610F711D811D8E
:1014B000911D119110531A30B0F33EF49095809520
:1014C000709561957F4F8F4F9F4F1F910895592FB2
:1014D000482F372F262F660F771F881F991F660FFB
:1014E000771F881F991F620F731F841F951F660F38
:1014F000771F881F991F0895F999FECF92BD81BD6E
:10150000F89A992780B50895262FF999FECF1FBA2A
:1015100092BD81BD20BD0FB6F894FA9AF99A0FBE1C
:10152000019608952F923F924F925F926F927F9211
:101530008F929F92AF92BF92CF92DF92EF92FF92E3
:101540000F931F93CF93DF93CDB7DEB7CA1BDB0B8F
:101550000FB6F894DEBF0FBECDBF09942A88398834
:1015600048885F846E847D848C849B84AA84B9843B
:10157000C884DF80EE80FD800C811B81AA81B98147
:10158000CE0FD11D0FB6F894DEBF0FBECDBFED015B
:101590000895A1E21A2EAA1BBB1BFD010DC0AA1FB4
:1015A000BB1FEE1FFF1FA217B307E407F50720F0CC
:1015B000A21BB30BE40BF50B661F771F881F991F47
:1015C0001A9469F760957095809590959B01AC0190
:1015D000BD01CF010895EE0FFF1F0590F491E02D9E
:1015E00009940F931F93CF93DF938230910510F4EA
:1015F00082E090E0E091E305F091E40530E020E046
:10160000B0E0A0E0309799F42115310509F44AC003
:10161000281B390B24303105D8F58A819B8161154F
:10162000710589F1FB0193838283FE0111C0408122
:1016300051810281138148175907E0F04817590773
:1016400099F4109761F012960C93129713961C93CD
:101650003296CF01DF91CF911F910F9108950093A2
:10166000E3051093E405F4CF2115310551F042173D
:10167000530738F0A901DB019A01BD01DF01F80130
:10168000C1CFEF01F9CF9093E4058093E305CDCF6F
:10169000FE01E20FF31F81939193225031093983A8
:1016A0002883D7CF2091E1053091E205232B41F427
:1016B00020910401309105013093E2052093E1056A
:1016C00020910201309103012115310541F42DB71C
:1016D0003EB74091060150910701241B350BE09164
:1016E000E105F091E205E217F307A0F42E1B3F0B92
:1016F0002817390778F0AC014E5F5F4F2417350784
:1017000048F04E0F5F1F5093E2054093E10581932F
:1017100091939FCFF0E0E0E09CCFCF93DF930097D1
:10172000E9F0FC01329713821282A091E305B09197
:10173000E405ED0130E020E01097A1F42081318133
:10174000820F931F2091E1053091E2052817390798
:1017500009F061C0F093E205E093E105DF91CF91DC
:101760000895EA01CE17DF07E8F54A815B819E0103
:1017700041155105B1F7E901FB83EA83499159917C
:10178000C40FD51FEC17FD0761F48081918102968B
:10179000840F951FE90199838883828193819B83BC
:1017A0008A83F0E0E0E012968D919C911397009768
:1017B000B9F52D913C911197CD010296820F931F9F
:1017C0002091E1053091E2052817390739F6309765
:1017D00051F51092E4051092E305B093E205A09351
:1017E000E105BCCFD383C28340815181840F951F13
:1017F000C817D90761F44E5F5F4F88819981480F00
:10180000591F518340838A819B8193838283211551
:10181000310509F0B0CFF093E405E093E3059ECFE6
:10182000FD01DC01C0CF13821282D7CFB0E0A0E06F
:10183000ECE1FCE00C94940A8C01009751F4CB018C
:101840000E94F10A8C01C801CDB7DEB7E0E10C942B
:10185000B00AFC01E60FF71F9C0122503109E21784
:10186000F30708F49DC0D901CD91DC911197C617FB
:10187000D70798F0C530D10530F3CE01049786170D
:10188000970708F3C61BD70B2297C193D1936D938B
:101890007C93CF010E948D0BD6CF5B01AC1ABD0AA1
:1018A0004C018C0E9D1EA091E305B091E405512CD6
:1018B000412CF12CE12C109731F58091E1059091AC
:1018C000E2058815990509F05CC04616570608F030
:1018D00058C08091020190910301009741F48DB7A7
:1018E0009EB74091060150910701841B950BE817A4
:1018F000F90708F055C0F093E205E093E105F9011E
:1019000071836083A0CF8D919C91119712966C90FA
:10191000129713967C901397A815B90559F56C0189
:1019200042E0C40ED11CCA14DB0420F1AC014A19F8
:101930005B09DA011296159780F0628273825183F7
:101940004083D9016D937C93E114F10471F0D701C8
:101950001396FC93EE93129776CF22968C0F9D1FD1
:10196000F90191838083F301EFCFF093E405E093D5
:10197000E30569CF4816590608F42C017D01D3010F
:101980009ACFCB010E94F10A7C01009749F0AE0189
:10199000B8010E94D30CC8010E948D0B870153CF60
:1019A00010E000E050CFFB01DC0102C001900D927D
:1019B00041505040D8F70895FB01DC018D91019012
:1019C00080190110D9F3990B0895FB01DC010190F6
:1019D0000D920020E1F70895FB01DC0141505040D9
:1019E00048F001900D920020C9F701C01D924150AE
:0A19F0005040E0F70895F894FFCF8F
:1019FA0003000000E5058000000000000000000070
:101A0A0000000000000000000000000000000000CC
:101A1A0000000000000000000000000000000000BC
:101A2A00000000000000000000400160008D008DF1
:101A3A0001FE009C00F0000D0A005661756C7420CE
:101A4A006578697374732E00776169742E2E2E007F
:101A5A00456E74657220796F7572203620646967E5
:101A6A0069742050494E3A004372656174696E6721
:101A7A00206E6577207661756C742E00456E7465EC
:101A8A0072206E6577203620646967697420504930
:101A9A004E3A0050494E2073746F72656420696E25
:101AAA0020454550524F4D00456E746572206F6E49
:101ABA006C79207369782064696769742070696E2B
:101ACA00004D6174636865640057726F6E672050D9
:101ADA00494E200020617474656D707473206C65C2
:101AEA0066742E006C61737420617474656D707411
:101AFA002E2057726F6E672070696E2077696C6C42
:101B0A0020657261736520646174612E00636C657F
:101B1A006172696E6720666C617368004545505250
:101B2A004F4D20636C656172656400546869732067
:101B3A00697320796F7572200020656E7472792C32
:101B4A00206D61782069732032322E0065202D20A5
:101B5A00656E7472792C2075202D207570646174FD
:101B6A00652C206B202D206B6E6F772C2077202D13
:101B7A0020776970652C2072202D2072657374613C
:101B8A0072742C2064202D20646F6D61696E206E42
:101B9A00616D657300456E747279206D6F646500BE
:101BAA00456E74657220646F6D61696E206E616D39
:101BBA006500456E7472696573206E6F7420616387
:101BCA006365707465642E00750075706461746570
:101BDA00206D6F646500456E74657220656E74725F
:101BEA0079206E756D6265722E006B006B6E6F7771
:101BFA00206D6F646500770045726173696E6720B6
:101C0A00616C6C206C6F636174696F6E7300720033
:101C1A005245005072696E74696E6720616C6C205F
:101C2A0073746F72656420646F6D61696E206E6192
:101C3A006D657300456E747279206E6F2E202020B8
:101C4A00446F6D61696E73002E20202020202020B1
:101C5A00202000496E76616C69642C20656E74657B
:101C6A00722076616C696420636861722E00456E29
:101C7A007465722073696E676C652076616C69643D
:101C8A0020636861722E00446F6D61696E206E6117
:101C9A006D652067726561746572207468616E2073
:101CAA0031352E00456E747279206E6F742073740C
:101CBA006F7265642E00456E746572207573657265
:101CCA006E616D652000557365726E616D65206782
:101CDA00726561746572207468616E2031352E00F8
:101CEA00456E7465722070617373776F7264005009
:101CFA00617373776F7264206772656174657220AD
:101D0A007468616E2031352E002A00557064617442
:101D1A00696E67206F6E200020656E7472790063A9
:101D2A0072656473207361766564206174206C6FD8
:101D3A00636174696F6E3A20004D656D6F72792028
:101D4A0066756C6C206F6E206D6F726520656E749F
:101D5A007269657300557365726E616D653A0050FC
:101D6A00617373776F72643A00496E76616C696465
:101D7A0020646F6D61696E206E616D6500596F75C3
:101D8A00206861766520656E746572656400456ECB
:101D9A0074727920636C656172656400456E74655E
:101DAA0072206E657720646F6D61696E206E616D59
:101DBA006500496E76616C6964206C6F6361746951
:061DCA006F6E00544F0093
:00000001FF
